:100000000C9456000C9468000C9468000C946800E2
:100010000C9468000C9468000C9468000C946800C0
:100020000C9468000C9468000C9468000C946800B0
:100030000C9468000C9468000C9468000C946800A0
:100040000C9468000C9468000C9468000C94680090
:100050000C9468000C9468000C9468000C94680080
:100060000C9468000C9468000C9468000C94680070
:100070000C9468000C9468000C9468000C94680060
:100080000C9468000C9468000C9468000C94680050
:100090000C9468000C9468000C9468000C94680040
:1000A0000C9468000C9468000C94680011241FBE26
:1000B000CFEFDAE0DEBFCDBF22E0A0E0B1E001C0CB
:1000C0001D92A030B207E1F70E946A000C94AB00C9
:1000D0000C9400008AB1806D8AB984B1876084B9BC
:1000E00080E58CBD5F9A5F985F9A5E98E0E0F1E0F2
:1000F00020E032E081E08193895F2E173F07D9F736
:1001000030E0AFE15C9A232F90E080E0632F70E055
:10011000FC01FF27E050FF4F4081582F2A9F500DD0
:100120001124540F252F2695269526952527FB016A
:10013000E80FF91FFF27E050FF4F420F40832EBD0D
:100140000DB407FEFDCF0196811544E0940701F739
:0A0150005C983F5FD7CFF894FFCF13
:00000001FF
