:100000000C9456000C9460000C9460000C946000FA
:100010000C9460000C9460000C9460000C946000E0
:100020000C9460000C9460000C9460000C946000D0
:100030000C9460000C9460000C9460000C946000C0
:100040000C9460000C9460000C9460000C946000B0
:100050000C9460000C9460000C9460000C946000A0
:100060000C9460000C9460000C9460000C94600090
:100070000C9460000C9460000C9460000C94600080
:100080000C9460000C9460000C9460000C94600070
:100090000C9460000C9460000C9460000C94600060
:1000A0000C9460000C9460000C94600011241FBE3E
:1000B000CFEFDAE0DEBFCDBF0E9462000C94870074
:1000C0000C9400008AB1806D8AB984B1876084B9CC
:1000D00080E58CBD5F9A5F985F9A5E985C9A85EA2E
:1000E00030E020E04FE1922F849F900D1124892F62
:1000F00086958695869589278EBD0DB407FEFDCF22
:100100002F5F3F4F211594E0390769F7FFCFF8942F
:02011000FFCF1F
:00000001FF
