:100000000C945E000C9470000C9470000C947000C2
:100010000C9470000C9470000C9470000C947000A0
:100020000C9470000C9470000C9470000C94700090
:100030000C9470000C9470000C9470000C94700080
:100040000C9470000C9470000C9470000C94700070
:100050000C9470000C9470000C9470000C94700060
:100060000C9470000C9470000C9470000C94700050
:100070000C9470000C9470000C9470000C94700040
:100080000C9470000C9470000C9470000C94700030
:100090000C9470000C9470000C9470000C94700020
:1000A0000C9470000C9470000C94700003C50BFA53
:1000B00040810758C92AFF011164DE4911241FBE7F
:1000C000CFEFDAE0DEBFCDBF21E0A0E0B1E001C0BC
:1000D0001D92A036B207E1F70E9491000C946601D0
:1000E0000C9400004FE1489F9001499F300D11246E
:1000F000260F371FA901440F452F441F550B51955B
:100100008627972724273527820F931F089590E08D
:10011000811102C0892F0895282F2170920F869592
:10012000F7CF81E030E020E0F901E050FF4F80831D
:100130002F5F3F4F8B5F813EB9F745E0C42ED12C36
:10014000712C812C912C5401D0E0C0E010E000E033
:100150005AE5352E60E6462E512CF801EF73FF2745
:10016000E050FF4F6080F601EF73FF27E050FF4F34
:10017000F081862D8F1B780EE62CF12C8F2F877047
:10018000970102C0220F331F8A95E2F7C901872524
:100190002F2F30E0962D977002C0359527959A95B0
:1001A000E2F7782E722A6F9EA0011124CA018C0FEB
:1001B0009D1FE70123E0CC0FDD1F2A95E1F72F2FCC
:1001C00026952695C227C827D927D70111969E01C3
:1001D0000E945001860E971EA81EB91EBE0190E017
:1001E00080E0982F872F762F662786269726A826C9
:1001F000B9266F160CF473946F1608F07324BA01C5
:10020000CE010E947200B7010E947200EC01862D9F
:100210000E948700780EF801EF70FF27E455FF4F2A
:1002200084917826C801B2010E943C012C2F280D30
:10023000270DFC01E050FF4F20830F5F1F4F33E07D
:10024000C30ED11C083B8BE0180709F086CF90E065
:1002500080E0FC01E050FF4F2081382F3770AE0165
:1002600002C0569547953A95E2F7242720830196D8
:100270008036910571F7FFCFAA1BBB1B51E107C068
:10028000AA1FBB1FA617B70710F0A61BB70B881F26
:10029000991F5A95A9F780959095BC01CD010895B5
:1002A0000E945701B7FF0895821B930B0895A29FE8
:1002B000B001B39FC001A39F700D811D1124911D3A
:1002C000B29F700D811D1124911D0895F894FFCFE8
:00000001FF
