:100000000C945E000C9470000C9470000C947000C2
:100010000C9470000C9470000C9470000C947000A0
:100020000C9470000C9470000C9470000C94700090
:100030000C9470000C9470000C9470000C94700080
:100040000C9470000C9470000C9470000C94700070
:100050000C9470000C9470000C9470000C9491003F
:100060000C9470000C9470000C9470000C94700050
:100070000C9470000C9470000C9470000C94700040
:100080000C9470000C9470000C9470000C94700030
:100090000C9470000C9470000C9470000C94700020
:1000A0000C9470000C9470000C94700003C50BFA53
:1000B00040810758C92AFF011164DE4911241FBE7F
:1000C000CFEFDAE0DEBFCDBF21E0A0E0B1E001C0BC
:1000D0001D92AA38B207E1F70E94C0000C94FA0101
:1000E0000C9400004FE1489F9001499F300D11246E
:1000F000260F371FA901440F452F441F550B51955B
:100100002427352786279727820F931F089590E08D
:10011000811102C0892F0895282F2170920F869592
:10012000F7CF1F920F920FB60F9211242F933F9388
:100130008F939F938091870190918801019690936E
:1001400088018093870120918701309188018091F7
:1001500087019091880135E0969587953A95E1F76A
:1001600082278093890185B198E0892785B99F917D
:100170008F913F912F910F900FBE0F901F90189568
:10018000CF93DF9300D000D01F92CDB7DEB78FEFB3
:1001900084B982E085BD81E080936E00789447E465
:1001A000842E41E0942EF40181938B5F8134E1F73A
:1001B000E7E0F1E087E090E081939193815B9B4FD2
:1001C000873E29E89207C1F7F12CE12CD12CC12CF4
:1001D00035E0A32EB12C1D821C82EC81FD81EF73D2
:1001E000FF27E95BFE4F7080F501EF73FF27E95BA6
:1001F000FE4F6080EC81FD81EF71FF27EE0FFF1F46
:10020000E95FFE4F0190F081E02D072D10E0209175
:100210000001270D2619862D8770A80102C0440F02
:10022000551F8A95E2F72427462D50E05B834A83C9
:10023000872D877002C0559547958A95E2F7242B44
:100240002983209300012091010130910201769CC5
:10025000200D311D1124AF0163E0440F551F6A9535
:10026000E1F7CF0196958795969587954827592769
:1002700042275327D80111969F010E94E401209044
:100280000301309004014090050150900601DC010B
:10029000CB01820D931DA41DB51D1A01512C412CBB
:1002A000542C432C322C2224BC01CD016225732511
:1002B00084259525609303017093040180930501C3
:1002C00090930601761424F489818F5F8093000156
:1002D000761430F0809100019AE58927809300011F
:1002E000F0FF69C0401B510B509302014093010184
:1002F00060900001D601AF73BB27A95BBE4F6C9223
:100300008091010190910201D701AF71BB27AA0F23
:10031000BB1FA95FBE4F8D939C93BF010E947200CB
:10032000B8010E9472009093020180930101872D11
:100330000E948700EC81FD81EF70FF27E455FF4F9D
:10034000E491680E6E266092000160FE39C0289A22
:100350008091000181FF36C0299A4C815D814F5FF9
:100360005F4F5D834C8353E0A50EB11C87E0C80E40
:10037000D11C95E0E90EF11C4C815D81403A5F4053
:1003800009F02BCF209187013091880180910101E4
:1003900090910201820F931F9093020180930101BB
:1003A0008091890187E891E02FEF821A920A8815DF
:1003B0009905D1F7FFCF8A819B81480F591F94CFB0
:1003C0002898C6CF2998C9CF0E94EB01B7FF08959E
:1003D000821B930B0895A29FB001B39FC001A39FFE
:1003E000700D811D1124911DB29F700D811D11246E
:0803F000911D0895F894FFCF60
:00000001FF
